{
  "address": "0xa513E6E4b8f2a923D98304ec87F64353C4D5C853",
  "abi": [
    {
      "inputs": [
        {
          "internalType": "address",
          "name": "stakingToken",
          "type": "address"
        },
        {
          "internalType": "address",
          "name": "rewardToken",
          "type": "address"
        }
      ],
      "stateMutability": "nonpayable",
      "type": "constructor"
    },
    {
      "inputs": [],
      "name": "Market__NeedsMoreThanZero",
      "type": "error"
    },
    {
      "inputs": [],
      "name": "Market__TransferFailed",
      "type": "error"
    },
    {
      "anonymous": false,
      "inputs": [
        {
          "indexed": false,
          "internalType": "uint256",
          "name": "newFee",
          "type": "uint256"
        }
      ],
      "name": "FeeChanged",
      "type": "event"
    },
    {
      "anonymous": false,
      "inputs": [
        {
          "indexed": true,
          "internalType": "address",
          "name": "previousOwner",
          "type": "address"
        },
        {
          "indexed": true,
          "internalType": "address",
          "name": "newOwner",
          "type": "address"
        }
      ],
      "name": "OwnershipTransferred",
      "type": "event"
    },
    {
      "inputs": [],
      "name": "REWARD_RATE",
      "outputs": [
        {
          "internalType": "uint256",
          "name": "",
          "type": "uint256"
        }
      ],
      "stateMutability": "view",
      "type": "function"
    },
    {
      "inputs": [],
      "name": "claimReward",
      "outputs": [],
      "stateMutability": "nonpayable",
      "type": "function"
    },
    {
      "inputs": [
        {
          "internalType": "address",
          "name": "account",
          "type": "address"
        }
      ],
      "name": "earned",
      "outputs": [
        {
          "internalType": "uint256",
          "name": "",
          "type": "uint256"
        }
      ],
      "stateMutability": "view",
      "type": "function"
    },
    {
      "inputs": [],
      "name": "owner",
      "outputs": [
        {
          "internalType": "address",
          "name": "",
          "type": "address"
        }
      ],
      "stateMutability": "view",
      "type": "function"
    },
    {
      "inputs": [],
      "name": "renounceOwnership",
      "outputs": [],
      "stateMutability": "nonpayable",
      "type": "function"
    },
    {
      "inputs": [],
      "name": "retrieveFee",
      "outputs": [
        {
          "internalType": "uint256",
          "name": "",
          "type": "uint256"
        }
      ],
      "stateMutability": "view",
      "type": "function"
    },
    {
      "inputs": [],
      "name": "rewardPerToken",
      "outputs": [
        {
          "internalType": "uint256",
          "name": "",
          "type": "uint256"
        }
      ],
      "stateMutability": "view",
      "type": "function"
    },
    {
      "inputs": [
        {
          "internalType": "address",
          "name": "",
          "type": "address"
        }
      ],
      "name": "s_balances",
      "outputs": [
        {
          "internalType": "uint256",
          "name": "",
          "type": "uint256"
        }
      ],
      "stateMutability": "view",
      "type": "function"
    },
    {
      "inputs": [],
      "name": "s_lastUpdateTime",
      "outputs": [
        {
          "internalType": "uint256",
          "name": "",
          "type": "uint256"
        }
      ],
      "stateMutability": "view",
      "type": "function"
    },
    {
      "inputs": [],
      "name": "s_rewardPerTokenStored",
      "outputs": [
        {
          "internalType": "uint256",
          "name": "",
          "type": "uint256"
        }
      ],
      "stateMutability": "view",
      "type": "function"
    },
    {
      "inputs": [],
      "name": "s_rewardToken",
      "outputs": [
        {
          "internalType": "contract IERC20",
          "name": "",
          "type": "address"
        }
      ],
      "stateMutability": "view",
      "type": "function"
    },
    {
      "inputs": [
        {
          "internalType": "address",
          "name": "",
          "type": "address"
        }
      ],
      "name": "s_rewards",
      "outputs": [
        {
          "internalType": "uint256",
          "name": "",
          "type": "uint256"
        }
      ],
      "stateMutability": "view",
      "type": "function"
    },
    {
      "inputs": [],
      "name": "s_stakingToken",
      "outputs": [
        {
          "internalType": "contract IERC20",
          "name": "",
          "type": "address"
        }
      ],
      "stateMutability": "view",
      "type": "function"
    },
    {
      "inputs": [],
      "name": "s_totalSupply",
      "outputs": [
        {
          "internalType": "uint256",
          "name": "",
          "type": "uint256"
        }
      ],
      "stateMutability": "view",
      "type": "function"
    },
    {
      "inputs": [
        {
          "internalType": "address",
          "name": "",
          "type": "address"
        }
      ],
      "name": "s_userRewardPerTokenPaid",
      "outputs": [
        {
          "internalType": "uint256",
          "name": "",
          "type": "uint256"
        }
      ],
      "stateMutability": "view",
      "type": "function"
    },
    {
      "inputs": [
        {
          "internalType": "uint256",
          "name": "newFee",
          "type": "uint256"
        }
      ],
      "name": "setFee",
      "outputs": [],
      "stateMutability": "nonpayable",
      "type": "function"
    },
    {
      "inputs": [
        {
          "internalType": "uint256",
          "name": "amount",
          "type": "uint256"
        }
      ],
      "name": "stake",
      "outputs": [],
      "stateMutability": "nonpayable",
      "type": "function"
    },
    {
      "inputs": [
        {
          "internalType": "address",
          "name": "newOwner",
          "type": "address"
        }
      ],
      "name": "transferOwnership",
      "outputs": [],
      "stateMutability": "nonpayable",
      "type": "function"
    },
    {
      "inputs": [
        {
          "internalType": "uint256",
          "name": "amount",
          "type": "uint256"
        }
      ],
      "name": "withdraw",
      "outputs": [],
      "stateMutability": "nonpayable",
      "type": "function"
    }
  ],
  "transactionHash": "0x3911c218ccae6485cb7136af0504dcd031ecbfc56447be5f2dc58e2616f764fc",
  "args": [
    "0x5FbDB2315678afecb367f032d93F642f64180aa3",
    "0x5FbDB2315678afecb367f032d93F642f64180aa3"
  ],
  "numDeployments": 1,
  "solcInputHash": "f8f5ea7a749e52435435397faddb843f",
  "bytecode": "0x608060405234801561001057600080fd5b50604051610a8c380380610a8c83398101604081905261002f916100d5565b61003833610069565b600180546001600160a01b039384166001600160a01b03199182161790915560028054929093169116179055610108565b600080546001600160a01b038381166001600160a01b0319831681178455604051919092169283917f8be0079c531659141344cd1fd0a4f28419497f9722a3daafe3b4186f6b6457e09190a35050565b80516001600160a01b03811681146100d057600080fd5b919050565b600080604083850312156100e857600080fd5b6100f1836100b9565b91506100ff602084016100b9565b90509250929050565b610975806101176000396000f3fe608060405234801561001057600080fd5b50600436106101105760003560e01c80638c4b47a1116100ad578063b88a802f11610071578063b88a802f14610219578063bea0815114610221578063cd3daf9d14610241578063f245ace414610249578063f2fde38b1461026957600080fd5b80638c4b47a1146101ba5780638da5cb5b146101c2578063a694fc3a146101d3578063ab32eb69146101e6578063adca9b721461020657600080fd5b80628cc262146101155780632e1a7d4d1461013b578063304ac91b146101505780635997bb37146101595780636374cc001461016257806369fe0e2d1461018d5780636a74a0fc146101a05780636aa0838f146101a9578063715018a6146101b2575b600080fd5b610128610123366004610819565b61027c565b6040519081526020015b60405180910390f35b61014e61014936600461086b565b610302565b005b61012860055481565b61012860035481565b600254610175906001600160a01b031681565b6040516001600160a01b039091168152602001610132565b61014e61019b36600461086b565b610453565b61012860045481565b61012860065481565b61014e6104c1565b600754610128565b6000546001600160a01b0316610175565b61014e6101e136600461086b565b6104f7565b6101286101f4366004610819565b60086020526000908152604090205481565b600154610175906001600160a01b031681565b61014e6105da565b61012861022f366004610819565b60096020526000908152604090205481565b6101286106cf565b610128610257366004610819565b600a6020526000908152604090205481565b61014e610277366004610819565b61072e565b6001600160a01b038116600090815260086020908152604080832054600a909252822054826102a96106cf565b6001600160a01b03861660009081526009602052604081205491925081670de0b6b3a76400006102d98686610912565b6102e390886108f3565b6102ed91906108d1565b6102f791906108b9565b979650505050505050565b3361030b6106cf565b6005554260065561031b8161027c565b6001600160a01b038216600090815260096020908152604080832093909355600554600a90915291902055818061036557604051630daf3e7160e41b815260040160405180910390fd5b33600090815260086020526040902054610380908490610912565b3360009081526008602052604090205560045461039e908490610912565b600490815560015460405163a9059cbb60e01b81523392810192909252602482018590526000916001600160a01b039091169063a9059cbb906044015b602060405180830381600087803b1580156103f557600080fd5b505af1158015610409573d6000803e3d6000fd5b505050506040513d601f19601f8201168201806040525081019061042d9190610849565b90508061044d57604051633a267cdb60e01b815260040160405180910390fd5b50505050565b6000546001600160a01b031633146104865760405162461bcd60e51b815260040161047d90610884565b60405180910390fd5b60078190556040518181527f6bbc57480a46553fa4d156ce702beef5f3ad66303b0ed1a5d4cb44966c6584c39060200160405180910390a150565b6000546001600160a01b031633146104eb5760405162461bcd60e51b815260040161047d90610884565b6104f560006107c9565b565b336105006106cf565b600555426006556105108161027c565b6001600160a01b038216600090815260096020908152604080832093909355600554600a90915291902055818061055a57604051630daf3e7160e41b815260040160405180910390fd5b336000908152600860205260409020546105759084906108b9565b336000908152600860205260409020556004546105939084906108b9565b60049081556001546040516323b872dd60e01b81523392810192909252306024830152604482018590526000916001600160a01b03909116906323b872dd906064016103db565b336105e36106cf565b600555426006556105f38161027c565b6001600160a01b03828116600090815260096020818152604080842095909555600554600a8252858420553380845291905283822054600254945163a9059cbb60e01b8152600481019290925260248201819052939192919091169063a9059cbb90604401602060405180830381600087803b15801561067257600080fd5b505af1158015610686573d6000803e3d6000fd5b505050506040513d601f19601f820116820180604052508101906106aa9190610849565b9050806106ca57604051633a267cdb60e01b815260040160405180910390fd5b505050565b6000600454600014156106e3575060055490565b6004546003546006546106f69042610912565b61070091906108f3565b61071290670de0b6b3a76400006108f3565b61071c91906108d1565b60055461072991906108b9565b905090565b6000546001600160a01b031633146107585760405162461bcd60e51b815260040161047d90610884565b6001600160a01b0381166107bd5760405162461bcd60e51b815260206004820152602660248201527f4f776e61626c653a206e6577206f776e657220697320746865207a65726f206160448201526564647265737360d01b606482015260840161047d565b6107c6816107c9565b50565b600080546001600160a01b038381166001600160a01b0319831681178455604051919092169283917f8be0079c531659141344cd1fd0a4f28419497f9722a3daafe3b4186f6b6457e09190a35050565b60006020828403121561082b57600080fd5b81356001600160a01b038116811461084257600080fd5b9392505050565b60006020828403121561085b57600080fd5b8151801515811461084257600080fd5b60006020828403121561087d57600080fd5b5035919050565b6020808252818101527f4f776e61626c653a2063616c6c6572206973206e6f7420746865206f776e6572604082015260600190565b600082198211156108cc576108cc610929565b500190565b6000826108ee57634e487b7160e01b600052601260045260246000fd5b500490565b600081600019048311821515161561090d5761090d610929565b500290565b60008282101561092457610924610929565b500390565b634e487b7160e01b600052601160045260246000fdfea264697066735822122052ed660d5bf1841333e5c7e9ea62bbe5b30d9f1266cd15d39d29571ddfe42f0764736f6c63430008070033",
  "devdoc": {
    "kind": "dev",
    "methods": {
      "owner()": {
        "details": "Returns the address of the current owner."
      },
      "renounceOwnership()": {
        "details": "Leaves the contract without owner. It will not be possible to call `onlyOwner` functions anymore. Can only be called by the current owner. NOTE: Renouncing ownership will leave the contract without an owner, thereby removing any functionality that is only available to the owner."
      },
      "transferOwnership(address)": {
        "details": "Transfers ownership of the contract to a new account (`newOwner`). Can only be called by the current owner."
      }
    },
    "version": 1
  },
  "userdoc": {
    "kind": "user",
    "methods": {},
    "version": 1
  },
  "storageLayout": {
    "storage": [
      {
        "astId": 400,
        "contract": "contracts/Market.sol:Market",
        "label": "_owner",
        "offset": 0,
        "slot": "0",
        "type": "t_address"
      },
      {
        "astId": 7945,
        "contract": "contracts/Market.sol:Market",
        "label": "s_stakingToken",
        "offset": 0,
        "slot": "1",
        "type": "t_contract(IERC20)4737"
      },
      {
        "astId": 7948,
        "contract": "contracts/Market.sol:Market",
        "label": "s_rewardToken",
        "offset": 0,
        "slot": "2",
        "type": "t_contract(IERC20)4737"
      },
      {
        "astId": 7950,
        "contract": "contracts/Market.sol:Market",
        "label": "REWARD_RATE",
        "offset": 0,
        "slot": "3",
        "type": "t_uint256"
      },
      {
        "astId": 7952,
        "contract": "contracts/Market.sol:Market",
        "label": "s_totalSupply",
        "offset": 0,
        "slot": "4",
        "type": "t_uint256"
      },
      {
        "astId": 7954,
        "contract": "contracts/Market.sol:Market",
        "label": "s_rewardPerTokenStored",
        "offset": 0,
        "slot": "5",
        "type": "t_uint256"
      },
      {
        "astId": 7956,
        "contract": "contracts/Market.sol:Market",
        "label": "s_lastUpdateTime",
        "offset": 0,
        "slot": "6",
        "type": "t_uint256"
      },
      {
        "astId": 7958,
        "contract": "contracts/Market.sol:Market",
        "label": "fee",
        "offset": 0,
        "slot": "7",
        "type": "t_uint256"
      },
      {
        "astId": 7966,
        "contract": "contracts/Market.sol:Market",
        "label": "s_balances",
        "offset": 0,
        "slot": "8",
        "type": "t_mapping(t_address,t_uint256)"
      },
      {
        "astId": 7970,
        "contract": "contracts/Market.sol:Market",
        "label": "s_rewards",
        "offset": 0,
        "slot": "9",
        "type": "t_mapping(t_address,t_uint256)"
      },
      {
        "astId": 7974,
        "contract": "contracts/Market.sol:Market",
        "label": "s_userRewardPerTokenPaid",
        "offset": 0,
        "slot": "10",
        "type": "t_mapping(t_address,t_uint256)"
      }
    ],
    "types": {
      "t_address": {
        "encoding": "inplace",
        "label": "address",
        "numberOfBytes": "20"
      },
      "t_contract(IERC20)4737": {
        "encoding": "inplace",
        "label": "contract IERC20",
        "numberOfBytes": "20"
      },
      "t_mapping(t_address,t_uint256)": {
        "encoding": "mapping",
        "key": "t_address",
        "label": "mapping(address => uint256)",
        "numberOfBytes": "32",
        "value": "t_uint256"
      },
      "t_uint256": {
        "encoding": "inplace",
        "label": "uint256",
        "numberOfBytes": "32"
      }
    }
  }
}