{
  "_format": "hh-sol-artifact-1",
  "contractName": "GovernorContract",
  "sourceName": "contracts/governance_standard/GovernorContract.sol",
  "abi": [
    {
      "inputs": [
        {
          "internalType": "contract IVotes",
          "name": "_token",
          "type": "address"
        },
        {
          "internalType": "contract TimelockController",
          "name": "_timelock",
          "type": "address"
        },
        {
          "internalType": "uint256",
          "name": "_votingDelay",
          "type": "uint256"
        },
        {
          "internalType": "uint256",
          "name": "_votingPeriod",
          "type": "uint256"
        },
        {
          "internalType": "uint256",
          "name": "_quorumPercentage",
          "type": "uint256"
        }
      ],
      "stateMutability": "nonpayable",
      "type": "constructor"
    },
    {
      "inputs": [],
      "name": "Empty",
      "type": "error"
    },
    {
      "anonymous": false,
      "inputs": [
        {
          "indexed": false,
          "internalType": "uint256",
          "name": "proposalId",
          "type": "uint256"
        }
      ],
      "name": "ProposalCanceled",
      "type": "event"
    },
    {
      "anonymous": false,
      "inputs": [
        {
          "indexed": false,
          "internalType": "uint256",
          "name": "proposalId",
          "type": "uint256"
        },
        {
          "indexed": false,
          "internalType": "address",
          "name": "proposer",
          "type": "address"
        },
        {
          "indexed": false,
          "internalType": "address[]",
          "name": "targets",
          "type": "address[]"
        },
        {
          "indexed": false,
          "internalType": "uint256[]",
          "name": "values",
          "type": "uint256[]"
        },
        {
          "indexed": false,
          "internalType": "string[]",
          "name": "signatures",
          "type": "string[]"
        },
        {
          "indexed": false,
          "internalType": "bytes[]",
          "name": "calldatas",
          "type": "bytes[]"
        },
        {
          "indexed": false,
          "internalType": "uint256",
          "name": "startBlock",
          "type": "uint256"
        },
        {
          "indexed": false,
          "internalType": "uint256",
          "name": "endBlock",
          "type": "uint256"
        },
        {
          "indexed": false,
          "internalType": "string",
          "name": "description",
          "type": "string"
        }
      ],
      "name": "ProposalCreated",
      "type": "event"
    },
    {
      "anonymous": false,
      "inputs": [
        {
          "indexed": false,
          "internalType": "uint256",
          "name": "proposalId",
          "type": "uint256"
        }
      ],
      "name": "ProposalExecuted",
      "type": "event"
    },
    {
      "anonymous": false,
      "inputs": [
        {
          "indexed": false,
          "internalType": "uint256",
          "name": "proposalId",
          "type": "uint256"
        },
        {
          "indexed": false,
          "internalType": "uint256",
          "name": "eta",
          "type": "uint256"
        }
      ],
      "name": "ProposalQueued",
      "type": "event"
    },
    {
      "anonymous": false,
      "inputs": [
        {
          "indexed": false,
          "internalType": "uint256",
          "name": "oldProposalThreshold",
          "type": "uint256"
        },
        {
          "indexed": false,
          "internalType": "uint256",
          "name": "newProposalThreshold",
          "type": "uint256"
        }
      ],
      "name": "ProposalThresholdSet",
      "type": "event"
    },
    {
      "anonymous": false,
      "inputs": [
        {
          "indexed": false,
          "internalType": "uint256",
          "name": "oldQuorumNumerator",
          "type": "uint256"
        },
        {
          "indexed": false,
          "internalType": "uint256",
          "name": "newQuorumNumerator",
          "type": "uint256"
        }
      ],
      "name": "QuorumNumeratorUpdated",
      "type": "event"
    },
    {
      "anonymous": false,
      "inputs": [
        {
          "indexed": false,
          "internalType": "address",
          "name": "oldTimelock",
          "type": "address"
        },
        {
          "indexed": false,
          "internalType": "address",
          "name": "newTimelock",
          "type": "address"
        }
      ],
      "name": "TimelockChange",
      "type": "event"
    },
    {
      "anonymous": false,
      "inputs": [
        {
          "indexed": true,
          "internalType": "address",
          "name": "voter",
          "type": "address"
        },
        {
          "indexed": false,
          "internalType": "uint256",
          "name": "proposalId",
          "type": "uint256"
        },
        {
          "indexed": false,
          "internalType": "uint8",
          "name": "support",
          "type": "uint8"
        },
        {
          "indexed": false,
          "internalType": "uint256",
          "name": "weight",
          "type": "uint256"
        },
        {
          "indexed": false,
          "internalType": "string",
          "name": "reason",
          "type": "string"
        }
      ],
      "name": "VoteCast",
      "type": "event"
    },
    {
      "anonymous": false,
      "inputs": [
        {
          "indexed": true,
          "internalType": "address",
          "name": "voter",
          "type": "address"
        },
        {
          "indexed": false,
          "internalType": "uint256",
          "name": "proposalId",
          "type": "uint256"
        },
        {
          "indexed": false,
          "internalType": "uint8",
          "name": "support",
          "type": "uint8"
        },
        {
          "indexed": false,
          "internalType": "uint256",
          "name": "weight",
          "type": "uint256"
        },
        {
          "indexed": false,
          "internalType": "string",
          "name": "reason",
          "type": "string"
        },
        {
          "indexed": false,
          "internalType": "bytes",
          "name": "params",
          "type": "bytes"
        }
      ],
      "name": "VoteCastWithParams",
      "type": "event"
    },
    {
      "anonymous": false,
      "inputs": [
        {
          "indexed": false,
          "internalType": "uint256",
          "name": "oldVotingDelay",
          "type": "uint256"
        },
        {
          "indexed": false,
          "internalType": "uint256",
          "name": "newVotingDelay",
          "type": "uint256"
        }
      ],
      "name": "VotingDelaySet",
      "type": "event"
    },
    {
      "anonymous": false,
      "inputs": [
        {
          "indexed": false,
          "internalType": "uint256",
          "name": "oldVotingPeriod",
          "type": "uint256"
        },
        {
          "indexed": false,
          "internalType": "uint256",
          "name": "newVotingPeriod",
          "type": "uint256"
        }
      ],
      "name": "VotingPeriodSet",
      "type": "event"
    },
    {
      "inputs": [],
      "name": "BALLOT_TYPEHASH",
      "outputs": [
        {
          "internalType": "bytes32",
          "name": "",
          "type": "bytes32"
        }
      ],
      "stateMutability": "view",
      "type": "function"
    },
    {
      "inputs": [],
      "name": "COUNTING_MODE",
      "outputs": [
        {
          "internalType": "string",
          "name": "",
          "type": "string"
        }
      ],
      "stateMutability": "pure",
      "type": "function"
    },
    {
      "inputs": [],
      "name": "EXTENDED_BALLOT_TYPEHASH",
      "outputs": [
        {
          "internalType": "bytes32",
          "name": "",
          "type": "bytes32"
        }
      ],
      "stateMutability": "view",
      "type": "function"
    },
    {
      "inputs": [
        {
          "internalType": "uint256",
          "name": "proposalId",
          "type": "uint256"
        },
        {
          "internalType": "uint8",
          "name": "support",
          "type": "uint8"
        }
      ],
      "name": "castVote",
      "outputs": [
        {
          "internalType": "uint256",
          "name": "",
          "type": "uint256"
        }
      ],
      "stateMutability": "nonpayable",
      "type": "function"
    },
    {
      "inputs": [
        {
          "internalType": "uint256",
          "name": "proposalId",
          "type": "uint256"
        },
        {
          "internalType": "uint8",
          "name": "support",
          "type": "uint8"
        },
        {
          "internalType": "uint8",
          "name": "v",
          "type": "uint8"
        },
        {
          "internalType": "bytes32",
          "name": "r",
          "type": "bytes32"
        },
        {
          "internalType": "bytes32",
          "name": "s",
          "type": "bytes32"
        }
      ],
      "name": "castVoteBySig",
      "outputs": [
        {
          "internalType": "uint256",
          "name": "",
          "type": "uint256"
        }
      ],
      "stateMutability": "nonpayable",
      "type": "function"
    },
    {
      "inputs": [
        {
          "internalType": "uint256",
          "name": "proposalId",
          "type": "uint256"
        },
        {
          "internalType": "uint8",
          "name": "support",
          "type": "uint8"
        },
        {
          "internalType": "string",
          "name": "reason",
          "type": "string"
        }
      ],
      "name": "castVoteWithReason",
      "outputs": [
        {
          "internalType": "uint256",
          "name": "",
          "type": "uint256"
        }
      ],
      "stateMutability": "nonpayable",
      "type": "function"
    },
    {
      "inputs": [
        {
          "internalType": "uint256",
          "name": "proposalId",
          "type": "uint256"
        },
        {
          "internalType": "uint8",
          "name": "support",
          "type": "uint8"
        },
        {
          "internalType": "string",
          "name": "reason",
          "type": "string"
        },
        {
          "internalType": "bytes",
          "name": "params",
          "type": "bytes"
        }
      ],
      "name": "castVoteWithReasonAndParams",
      "outputs": [
        {
          "internalType": "uint256",
          "name": "",
          "type": "uint256"
        }
      ],
      "stateMutability": "nonpayable",
      "type": "function"
    },
    {
      "inputs": [
        {
          "internalType": "uint256",
          "name": "proposalId",
          "type": "uint256"
        },
        {
          "internalType": "uint8",
          "name": "support",
          "type": "uint8"
        },
        {
          "internalType": "string",
          "name": "reason",
          "type": "string"
        },
        {
          "internalType": "bytes",
          "name": "params",
          "type": "bytes"
        },
        {
          "internalType": "uint8",
          "name": "v",
          "type": "uint8"
        },
        {
          "internalType": "bytes32",
          "name": "r",
          "type": "bytes32"
        },
        {
          "internalType": "bytes32",
          "name": "s",
          "type": "bytes32"
        }
      ],
      "name": "castVoteWithReasonAndParamsBySig",
      "outputs": [
        {
          "internalType": "uint256",
          "name": "",
          "type": "uint256"
        }
      ],
      "stateMutability": "nonpayable",
      "type": "function"
    },
    {
      "inputs": [
        {
          "internalType": "address[]",
          "name": "targets",
          "type": "address[]"
        },
        {
          "internalType": "uint256[]",
          "name": "values",
          "type": "uint256[]"
        },
        {
          "internalType": "bytes[]",
          "name": "calldatas",
          "type": "bytes[]"
        },
        {
          "internalType": "bytes32",
          "name": "descriptionHash",
          "type": "bytes32"
        }
      ],
      "name": "execute",
      "outputs": [
        {
          "internalType": "uint256",
          "name": "",
          "type": "uint256"
        }
      ],
      "stateMutability": "payable",
      "type": "function"
    },
    {
      "inputs": [
        {
          "internalType": "address",
          "name": "account",
          "type": "address"
        },
        {
          "internalType": "uint256",
          "name": "blockNumber",
          "type": "uint256"
        }
      ],
      "name": "getVotes",
      "outputs": [
        {
          "internalType": "uint256",
          "name": "",
          "type": "uint256"
        }
      ],
      "stateMutability": "view",
      "type": "function"
    },
    {
      "inputs": [
        {
          "internalType": "address",
          "name": "account",
          "type": "address"
        },
        {
          "internalType": "uint256",
          "name": "blockNumber",
          "type": "uint256"
        },
        {
          "internalType": "bytes",
          "name": "params",
          "type": "bytes"
        }
      ],
      "name": "getVotesWithParams",
      "outputs": [
        {
          "internalType": "uint256",
          "name": "",
          "type": "uint256"
        }
      ],
      "stateMutability": "view",
      "type": "function"
    },
    {
      "inputs": [
        {
          "internalType": "uint256",
          "name": "proposalId",
          "type": "uint256"
        },
        {
          "internalType": "address",
          "name": "account",
          "type": "address"
        }
      ],
      "name": "hasVoted",
      "outputs": [
        {
          "internalType": "bool",
          "name": "",
          "type": "bool"
        }
      ],
      "stateMutability": "view",
      "type": "function"
    },
    {
      "inputs": [
        {
          "internalType": "address[]",
          "name": "targets",
          "type": "address[]"
        },
        {
          "internalType": "uint256[]",
          "name": "values",
          "type": "uint256[]"
        },
        {
          "internalType": "bytes[]",
          "name": "calldatas",
          "type": "bytes[]"
        },
        {
          "internalType": "bytes32",
          "name": "descriptionHash",
          "type": "bytes32"
        }
      ],
      "name": "hashProposal",
      "outputs": [
        {
          "internalType": "uint256",
          "name": "",
          "type": "uint256"
        }
      ],
      "stateMutability": "pure",
      "type": "function"
    },
    {
      "inputs": [],
      "name": "name",
      "outputs": [
        {
          "internalType": "string",
          "name": "",
          "type": "string"
        }
      ],
      "stateMutability": "view",
      "type": "function"
    },
    {
      "inputs": [
        {
          "internalType": "address",
          "name": "",
          "type": "address"
        },
        {
          "internalType": "address",
          "name": "",
          "type": "address"
        },
        {
          "internalType": "uint256[]",
          "name": "",
          "type": "uint256[]"
        },
        {
          "internalType": "uint256[]",
          "name": "",
          "type": "uint256[]"
        },
        {
          "internalType": "bytes",
          "name": "",
          "type": "bytes"
        }
      ],
      "name": "onERC1155BatchReceived",
      "outputs": [
        {
          "internalType": "bytes4",
          "name": "",
          "type": "bytes4"
        }
      ],
      "stateMutability": "nonpayable",
      "type": "function"
    },
    {
      "inputs": [
        {
          "internalType": "address",
          "name": "",
          "type": "address"
        },
        {
          "internalType": "address",
          "name": "",
          "type": "address"
        },
        {
          "internalType": "uint256",
          "name": "",
          "type": "uint256"
        },
        {
          "internalType": "uint256",
          "name": "",
          "type": "uint256"
        },
        {
          "internalType": "bytes",
          "name": "",
          "type": "bytes"
        }
      ],
      "name": "onERC1155Received",
      "outputs": [
        {
          "internalType": "bytes4",
          "name": "",
          "type": "bytes4"
        }
      ],
      "stateMutability": "nonpayable",
      "type": "function"
    },
    {
      "inputs": [
        {
          "internalType": "address",
          "name": "",
          "type": "address"
        },
        {
          "internalType": "address",
          "name": "",
          "type": "address"
        },
        {
          "internalType": "uint256",
          "name": "",
          "type": "uint256"
        },
        {
          "internalType": "bytes",
          "name": "",
          "type": "bytes"
        }
      ],
      "name": "onERC721Received",
      "outputs": [
        {
          "internalType": "bytes4",
          "name": "",
          "type": "bytes4"
        }
      ],
      "stateMutability": "nonpayable",
      "type": "function"
    },
    {
      "inputs": [
        {
          "internalType": "uint256",
          "name": "proposalId",
          "type": "uint256"
        }
      ],
      "name": "proposalDeadline",
      "outputs": [
        {
          "internalType": "uint256",
          "name": "",
          "type": "uint256"
        }
      ],
      "stateMutability": "view",
      "type": "function"
    },
    {
      "inputs": [
        {
          "internalType": "uint256",
          "name": "proposalId",
          "type": "uint256"
        }
      ],
      "name": "proposalEta",
      "outputs": [
        {
          "internalType": "uint256",
          "name": "",
          "type": "uint256"
        }
      ],
      "stateMutability": "view",
      "type": "function"
    },
    {
      "inputs": [
        {
          "internalType": "uint256",
          "name": "proposalId",
          "type": "uint256"
        }
      ],
      "name": "proposalSnapshot",
      "outputs": [
        {
          "internalType": "uint256",
          "name": "",
          "type": "uint256"
        }
      ],
      "stateMutability": "view",
      "type": "function"
    },
    {
      "inputs": [],
      "name": "proposalThreshold",
      "outputs": [
        {
          "internalType": "uint256",
          "name": "",
          "type": "uint256"
        }
      ],
      "stateMutability": "view",
      "type": "function"
    },
    {
      "inputs": [
        {
          "internalType": "uint256",
          "name": "proposalId",
          "type": "uint256"
        }
      ],
      "name": "proposalVotes",
      "outputs": [
        {
          "internalType": "uint256",
          "name": "againstVotes",
          "type": "uint256"
        },
        {
          "internalType": "uint256",
          "name": "forVotes",
          "type": "uint256"
        },
        {
          "internalType": "uint256",
          "name": "abstainVotes",
          "type": "uint256"
        }
      ],
      "stateMutability": "view",
      "type": "function"
    },
    {
      "inputs": [
        {
          "internalType": "address[]",
          "name": "targets",
          "type": "address[]"
        },
        {
          "internalType": "uint256[]",
          "name": "values",
          "type": "uint256[]"
        },
        {
          "internalType": "bytes[]",
          "name": "calldatas",
          "type": "bytes[]"
        },
        {
          "internalType": "string",
          "name": "description",
          "type": "string"
        }
      ],
      "name": "propose",
      "outputs": [
        {
          "internalType": "uint256",
          "name": "",
          "type": "uint256"
        }
      ],
      "stateMutability": "nonpayable",
      "type": "function"
    },
    {
      "inputs": [
        {
          "internalType": "address[]",
          "name": "targets",
          "type": "address[]"
        },
        {
          "internalType": "uint256[]",
          "name": "values",
          "type": "uint256[]"
        },
        {
          "internalType": "bytes[]",
          "name": "calldatas",
          "type": "bytes[]"
        },
        {
          "internalType": "bytes32",
          "name": "descriptionHash",
          "type": "bytes32"
        }
      ],
      "name": "queue",
      "outputs": [
        {
          "internalType": "uint256",
          "name": "",
          "type": "uint256"
        }
      ],
      "stateMutability": "nonpayable",
      "type": "function"
    },
    {
      "inputs": [
        {
          "internalType": "uint256",
          "name": "blockNumber",
          "type": "uint256"
        }
      ],
      "name": "quorum",
      "outputs": [
        {
          "internalType": "uint256",
          "name": "",
          "type": "uint256"
        }
      ],
      "stateMutability": "view",
      "type": "function"
    },
    {
      "inputs": [],
      "name": "quorumDenominator",
      "outputs": [
        {
          "internalType": "uint256",
          "name": "",
          "type": "uint256"
        }
      ],
      "stateMutability": "view",
      "type": "function"
    },
    {
      "inputs": [],
      "name": "quorumNumerator",
      "outputs": [
        {
          "internalType": "uint256",
          "name": "",
          "type": "uint256"
        }
      ],
      "stateMutability": "view",
      "type": "function"
    },
    {
      "inputs": [
        {
          "internalType": "address",
          "name": "target",
          "type": "address"
        },
        {
          "internalType": "uint256",
          "name": "value",
          "type": "uint256"
        },
        {
          "internalType": "bytes",
          "name": "data",
          "type": "bytes"
        }
      ],
      "name": "relay",
      "outputs": [],
      "stateMutability": "nonpayable",
      "type": "function"
    },
    {
      "inputs": [
        {
          "internalType": "uint256",
          "name": "newProposalThreshold",
          "type": "uint256"
        }
      ],
      "name": "setProposalThreshold",
      "outputs": [],
      "stateMutability": "nonpayable",
      "type": "function"
    },
    {
      "inputs": [
        {
          "internalType": "uint256",
          "name": "newVotingDelay",
          "type": "uint256"
        }
      ],
      "name": "setVotingDelay",
      "outputs": [],
      "stateMutability": "nonpayable",
      "type": "function"
    },
    {
      "inputs": [
        {
          "internalType": "uint256",
          "name": "newVotingPeriod",
          "type": "uint256"
        }
      ],
      "name": "setVotingPeriod",
      "outputs": [],
      "stateMutability": "nonpayable",
      "type": "function"
    },
    {
      "inputs": [
        {
          "internalType": "uint256",
          "name": "proposalId",
          "type": "uint256"
        }
      ],
      "name": "state",
      "outputs": [
        {
          "internalType": "enum IGovernor.ProposalState",
          "name": "",
          "type": "uint8"
        }
      ],
      "stateMutability": "view",
      "type": "function"
    },
    {
      "inputs": [
        {
          "internalType": "bytes4",
          "name": "interfaceId",
          "type": "bytes4"
        }
      ],
      "name": "supportsInterface",
      "outputs": [
        {
          "internalType": "bool",
          "name": "",
          "type": "bool"
        }
      ],
      "stateMutability": "view",
      "type": "function"
    },
    {
      "inputs": [],
      "name": "timelock",
      "outputs": [
        {
          "internalType": "address",
          "name": "",
          "type": "address"
        }
      ],
      "stateMutability": "view",
      "type": "function"
    },
    {
      "inputs": [],
      "name": "token",
      "outputs": [
        {
          "internalType": "contract IVotes",
          "name": "",
          "type": "address"
        }
      ],
      "stateMutability": "view",
      "type": "function"
    },
    {
      "inputs": [
        {
          "internalType": "uint256",
          "name": "newQuorumNumerator",
          "type": "uint256"
        }
      ],
      "name": "updateQuorumNumerator",
      "outputs": [],
      "stateMutability": "nonpayable",
      "type": "function"
    },
    {
      "inputs": [
        {
          "internalType": "contract TimelockController",
          "name": "newTimelock",
          "type": "address"
        }
      ],
      "name": "updateTimelock",
      "outputs": [],
      "stateMutability": "nonpayable",
      "type": "function"
    },
    {
      "inputs": [],
      "name": "version",
      "outputs": [
        {
          "internalType": "string",
          "name": "",
          "type": "string"
        }
      ],
      "stateMutability": "view",
      "type": "function"
    },
    {
      "inputs": [],
      "name": "votingDelay",
      "outputs": [
        {
          "internalType": "uint256",
          "name": "",
          "type": "uint256"
        }
      ],
      "stateMutability": "view",
      "type": "function"
    },
    {
      "inputs": [],
      "name": "votingPeriod",
      "outputs": [
        {
          "internalType": "uint256",
          "name": "",
          "type": "uint256"
        }
      ],
      "stateMutability": "view",
      "type": "function"
    },
    {
      "stateMutability": "payable",
      "type": "receive"
    }
  ],
  "bytecode": "0x6101606040523480156200001257600080fd5b5060405162003d8038038062003d80833981016040819052620000359162000497565b838186858560006040518060400160405280601081526020016f11dbdd995c9b9bdc90dbdb9d1c9858dd60821b81525080620000766200017a60201b60201c565b815160208084019190912082518383012060e08290526101008190524660a0818152604080517f8b73c3c69bb8fe3d512ecc4cf759cc79239f7b179b0ffacaa9a75d522b39400f81880181905281830187905260608201869052608082019490945230818401528151808203909301835260c00190528051940193909320919290916080523060601b60c05261012052505082516200011f9250600091506020840190620003f1565b506200012d90508362000195565b6200013882620001d6565b62000143816200027d565b50505060601b6001600160601b031916610140526200016281620002be565b506200016e8162000388565b50505050505062000545565b6040805180820190915260018152603160f81b602082015290565b60045460408051918252602082018390527fc565b045403dc03c2eea82b81a0465edad9e2e7fc4d97e11421c209da93d7a93910160405180910390a1600455565b600081116200023c5760405162461bcd60e51b815260206004820152602760248201527f476f7665726e6f7253657474696e67733a20766f74696e6720706572696f6420604482015266746f6f206c6f7760c81b60648201526084015b60405180910390fd5b60055460408051918252602082018390527f7e3f7f0708a84de9203036abaa450dccc85ad5ff52f78c170f3edb55cf5e8828910160405180910390a1600555565b60065460408051918252602082018390527fccb45da8d5717e6c4544694297c4ba5cf151d455c9bb0ed4fc7a38411bc05461910160405180910390a1600655565b6064811115620003435760405162461bcd60e51b815260206004820152604360248201527f476f7665726e6f72566f74657351756f72756d4672616374696f6e3a2071756f60448201527f72756d4e756d657261746f72206f7665722071756f72756d44656e6f6d696e616064820152623a37b960e91b608482015260a40162000233565b600880549082905560408051828152602081018490527f0553476bf02ef2726e8ce5ced78d63e26e602e4a2257b1f559418e24b4633997910160405180910390a15050565b600954604080516001600160a01b03928316815291831660208301527f08f74ea46ef7894f65eabfb5e6e695de773a000b47c529ab559178069b226401910160405180910390a1600980546001600160a01b0319166001600160a01b0392909216919091179055565b828054620003ff90620004ef565b90600052602060002090601f0160209004810192826200042357600085556200046e565b82601f106200043e57805160ff19168380011785556200046e565b828001600101855582156200046e579182015b828111156200046e57825182559160200191906001019062000451565b506200047c92915062000480565b5090565b5b808211156200047c576000815560010162000481565b600080600080600060a08688031215620004b057600080fd5b8551620004bd816200052c565b6020870151909550620004d0816200052c565b6040870151606088015160809098015196999198509695945092505050565b600181811c908216806200050457607f821691505b602082108114156200052657634e487b7160e01b600052602260045260246000fd5b50919050565b6001600160a01b03811681146200054257600080fd5b50565b60805160a05160c05160601c60e05161010051610120516101405160601c6137cc620005b46000396000818161084b01528181611c860152611e900152600061201b0152600061206a0152600061204501526000611f9e01526000611fc801526000611ff201526137cc6000f3fe60806040526004361061023f5760003560e01c80637d5e81e21161012e578063c59057e4116100ab578063eb9019d41161006f578063eb9019d4146107ad578063ece40cc1146107cd578063f23a6e61146107ed578063f8ce560a14610819578063fc0c546a1461083957600080fd5b8063c59057e4146106c1578063d33219b4146106e1578063dd4e2ba514610713578063deaaa7cc14610759578063ea0217cf1461078d57600080fd5b8063ab58fb8e116100f2578063ab58fb8e14610620578063b58131b014610640578063bc197c8114610655578063c01f9e3714610681578063c28bc2fa146106a157600080fd5b80637d5e81e21461059757806397c3d334146105b75780639a802a6d146105cb578063a7713a70146105eb578063a890c9101461060057600080fd5b80633932abb1116101bc57806354fd4d501161018057806354fd4d50146104ed57806356781388146105175780635f398a141461053757806370b0f660146105575780637b3c71d31461057757600080fd5b80633932abb1146103ec5780633bccf4fd146104015780633e4f49e614610421578063438596321461044e578063544ffc9c1461049857600080fd5b8063150b7a0211610203578063150b7a0214610321578063160cbed7146103655780632656227d146103855780632d63f693146103985780632fe3e261146103b857600080fd5b806301ffc9a71461026757806302a251a31461029c57806303420181146102bf57806306f3f9e6146102df57806306fdde03146102ff57600080fd5b36610262573061024d61086d565b6001600160a01b03161461026057600080fd5b005b600080fd5b34801561027357600080fd5b50610287610282366004612ed4565b610886565b60405190151581526020015b60405180910390f35b3480156102a857600080fd5b506102b1610897565b604051908152602001610293565b3480156102cb57600080fd5b506102b16102da36600461303a565b6108a2565b3480156102eb57600080fd5b506102606102fa366004612f1b565b61099a565b34801561030b57600080fd5b50610314610a32565b6040516102939190613368565b34801561032d57600080fd5b5061034c61033c366004612ba4565b630a85bd0160e11b949350505050565b6040516001600160e01b03199091168152602001610293565b34801561037157600080fd5b506102b1610380366004612d56565b610ac4565b6102b1610393366004612d56565b610ce2565b3480156103a457600080fd5b506102b16103b3366004612f1b565b610dcf565b3480156103c457600080fd5b506102b17fb3b3f3b703cd84ce352197dcff232b1b5d3cfb2025ce47cf04742d0651f1af8881565b3480156103f857600080fd5b506102b1610e06565b34801561040d57600080fd5b506102b161041c3660046130e0565b610e11565b34801561042d57600080fd5b5061044161043c366004612f1b565b610e87565b6040516102939190613340565b34801561045a57600080fd5b50610287610469366004612f34565b60008281526007602090815260408083206001600160a01b038516845260030190915290205460ff1692915050565b3480156104a457600080fd5b506104d26104b3366004612f1b565b6000908152600760205260409020805460018201546002909201549092565b60408051938452602084019290925290820152606001610293565b3480156104f957600080fd5b506040805180820190915260018152603160f81b6020820152610314565b34801561052357600080fd5b506102b1610532366004612f64565b610e92565b34801561054357600080fd5b506102b1610552366004612fd1565b610ebb565b34801561056357600080fd5b50610260610572366004612f1b565b610f05565b34801561058357600080fd5b506102b1610592366004612f90565b610f91565b3480156105a357600080fd5b506102b16105b2366004612de5565b610fe3565b3480156105c357600080fd5b5060646102b1565b3480156105d757600080fd5b506102b16105e6366004612cfe565b610ffa565b3480156105f757600080fd5b506008546102b1565b34801561060c57600080fd5b5061026061061b366004612efe565b611011565b34801561062c57600080fd5b506102b161063b366004612f1b565b61109d565b34801561064c57600080fd5b506102b1611146565b34801561066157600080fd5b5061034c610670366004612af7565b63bc197c8160e01b95945050505050565b34801561068d57600080fd5b506102b161069c366004612f1b565b611151565b3480156106ad57600080fd5b506102606106bc366004612ca3565b611180565b3480156106cd57600080fd5b506102b16106dc366004612d56565b61124c565b3480156106ed57600080fd5b506009546001600160a01b03165b6040516001600160a01b039091168152602001610293565b34801561071f57600080fd5b506040805180820190915260208082527f737570706f72743d627261766f2671756f72756d3d666f722c6162737461696e90820152610314565b34801561076557600080fd5b506102b17f150214d74d59b7d1e90c73fc22ef3d991dd0a76b046543d4d80ab92d2a50328f81565b34801561079957600080fd5b506102606107a8366004612f1b565b611286565b3480156107b957600080fd5b506102b16107c8366004612c77565b611312565b3480156107d957600080fd5b506102606107e8366004612f1b565b611333565b3480156107f957600080fd5b5061034c610808366004612c0f565b63f23a6e6160e01b95945050505050565b34801561082557600080fd5b506102b1610834366004612f1b565b6113bf565b34801561084557600080fd5b506106fb7f000000000000000000000000000000000000000000000000000000000000000081565b60006108816009546001600160a01b031690565b905090565b6000610891826113ca565b92915050565b600061088160055490565b60008061094661093e7fb3b3f3b703cd84ce352197dcff232b1b5d3cfb2025ce47cf04742d0651f1af888c8c8c8c6040516108de929190613223565b60405180910390208b80519060200120604051602001610923959493929190948552602085019390935260ff9190911660408401526060830152608082015260a00190565b604051602081830303815290604052805190602001206113ef565b86868661143d565b905061098c8a828b8b8b8080601f0160208091040260200160405190810160405280939291908181526020018383808284376000920191909152508d925061145b915050565b9a9950505050505050505050565b6109a261086d565b6001600160a01b0316336001600160a01b0316146109db5760405162461bcd60e51b81526004016109d29061337b565b60405180910390fd5b306109e461086d565b6001600160a01b031614610a265760008036604051610a04929190613223565b604051809103902090505b80610a1a60026115bd565b14610a2457610a0f565b505b610a2f81611640565b50565b606060008054610a41906136aa565b80601f0160208091040260200160405190810160405280929190818152602001828054610a6d906136aa565b8015610aba5780601f10610a8f57610100808354040283529160200191610aba565b820191906000526020600020905b815481529060010190602001808311610a9d57829003601f168201915b5050505050905090565b600080610ad38686868661124c565b90506004610ae082610e87565b6007811115610af157610af1613716565b14610b0e5760405162461bcd60e51b81526004016109d2906133ee565b6009546040805163793d064960e11b815290516000926001600160a01b03169163f27a0c92916004808301926020929190829003018186803b158015610b5357600080fd5b505afa158015610b67573d6000803e3d6000fd5b505050506040513d601f19601f82011682018060405250810190610b8b9190612ebb565b60095460405163b1c5f42760e01b81529192506001600160a01b03169063b1c5f42790610bc5908a908a908a906000908b9060040161329a565b60206040518083038186803b158015610bdd57600080fd5b505afa158015610bf1573d6000803e3d6000fd5b505050506040513d601f19601f82011682018060405250810190610c159190612ebb565b6000838152600a60205260408082209290925560095491516308f2a0bb60e41b81526001600160a01b0390921691638f2a0bb091610c60918b918b918b91908b9089906004016132e8565b600060405180830381600087803b158015610c7a57600080fd5b505af1158015610c8e573d6000803e3d6000fd5b505050507f9a2e42fd6722813d69113e7d0079d3d940171428df7373df9c7f7617cfda2892828242610cc091906135df565b6040805192835260208301919091520160405180910390a15095945050505050565b600080610cf18686868661124c565b90506000610cfe82610e87565b90506004816007811115610d1457610d14613716565b1480610d3157506005816007811115610d2f57610d2f613716565b145b610d4d5760405162461bcd60e51b81526004016109d2906133ee565b600082815260016020818152604092839020600201805460ff191690921790915590518381527f712ae1383f79ac853f8d882153778e0260ef8f03b504e2866e0593e04d2b291f910160405180910390a1610dab8288888888611708565b610db882888888886117aa565b610dc582888888886117b7565b5095945050505050565b60008181526001602090815260408083208151928301909152546001600160401b0316908190525b6001600160401b031692915050565b600061088160045490565b604080517f150214d74d59b7d1e90c73fc22ef3d991dd0a76b046543d4d80ab92d2a50328f602082015290810186905260ff851660608201526000908190610e5f9061093e90608001610923565b9050610e7c878288604051806020016040528060008152506117f4565b979650505050505050565b600061089182611817565b600080339050610eb3848285604051806020016040528060008152506117f4565b949350505050565b600080339050610e7c87828888888080601f0160208091040260200160405190810160405280939291908181526020018383808284376000920191909152508a925061145b915050565b610f0d61086d565b6001600160a01b0316336001600160a01b031614610f3d5760405162461bcd60e51b81526004016109d29061337b565b30610f4661086d565b6001600160a01b031614610f885760008036604051610f66929190613223565b604051809103902090505b80610f7c60026115bd565b14610f8657610f71565b505b610a2f8161197f565b600080339050610fd986828787878080601f0160208091040260200160405190810160405280939291908181526020018383808284376000920191909152506117f492505050565b9695505050505050565b6000610ff1858585856119c0565b95945050505050565b6000611007848484611c5d565b90505b9392505050565b61101961086d565b6001600160a01b0316336001600160a01b0316146110495760405162461bcd60e51b81526004016109d29061337b565b3061105261086d565b6001600160a01b0316146110945760008036604051611072929190613223565b604051809103902090505b8061108860026115bd565b146110925761107d565b505b610a2f81611d02565b6009546000828152600a602052604080822054905163d45c443560e01b81526004810191909152909182916001600160a01b039091169063d45c44359060240160206040518083038186803b1580156110f557600080fd5b505afa158015611109573d6000803e3d6000fd5b505050506040513d601f19601f8201168201806040525081019061112d9190612ebb565b90508060011461113d578061100a565b60009392505050565b600061088160065490565b60008181526001602081815260408084208151928301909152909101546001600160401b031690819052610df7565b61118861086d565b6001600160a01b0316336001600160a01b0316146111b85760405162461bcd60e51b81526004016109d29061337b565b306111c161086d565b6001600160a01b03161461120357600080366040516111e1929190613223565b604051809103902090505b806111f760026115bd565b14611201576111ec565b505b6112458483838080601f016020809104026020016040519081016040528093929190818152602001838380828437600092019190915250889250611d6b915050565b5050505050565b600084848484604051602001611265949392919061324f565b60408051601f19818403018152919052805160209091012095945050505050565b61128e61086d565b6001600160a01b0316336001600160a01b0316146112be5760405162461bcd60e51b81526004016109d29061337b565b306112c761086d565b6001600160a01b03161461130957600080366040516112e7929190613223565b604051809103902090505b806112fd60026115bd565b14611307576112f2565b505b610a2f81611d91565b600061100a838361132e60408051602081019091526000815290565b611c5d565b61133b61086d565b6001600160a01b0316336001600160a01b03161461136b5760405162461bcd60e51b81526004016109d29061337b565b3061137461086d565b6001600160a01b0316146113b65760008036604051611394929190613223565b604051809103902090505b806113aa60026115bd565b146113b45761139f565b505b610a2f81611e32565b600061089182611e73565b60006001600160e01b03198216636e665ced60e01b1480610891575061089182611f26565b60006108916113fc611f91565b8360405161190160f01b6020820152602281018390526042810182905260009060620160405160208183030381529060405280519060200120905092915050565b600080600061144e878787876120b8565b91509150610dc58161219b565b600085815260016020819052604082209061147588610e87565b600781111561148657611486613716565b146114df5760405162461bcd60e51b815260206004820152602360248201527f476f7665726e6f723a20766f7465206e6f742063757272656e746c792061637460448201526269766560e81b60648201526084016109d2565b604080516020810190915281546001600160401b03169081905260009061150890889086611c5d565b90506115178888888488612351565b835161156957866001600160a01b03167fb8e138887d0aa13bab447e82de9d5c1777041ecd21ca36ba824ff1e6c07ddda48988848960405161155c949392919061351e565b60405180910390a2610e7c565b866001600160a01b03167fe2babfbac5889a709b63bb7f598b324e08bc5a4fb9ec647fb3cbc9ec07eb871289888489896040516115aa959493929190613546565b60405180910390a2979650505050505050565b60006115dc8254600f81810b810b600160801b909204810b900b131590565b156115fa57604051631ed9509560e11b815260040160405180910390fd5b508054600f90810b80820b820b600090815260018085016020526040822080549290558454920190920b6001600160801b03166001600160801b03199091161790915590565b60648111156116c35760405162461bcd60e51b815260206004820152604360248201527f476f7665726e6f72566f74657351756f72756d4672616374696f6e3a2071756f60448201527f72756d4e756d657261746f72206f7665722071756f72756d44656e6f6d696e616064820152623a37b960e91b608482015260a4016109d2565b600880549082905560408051828152602081018490527f0553476bf02ef2726e8ce5ced78d63e26e602e4a2257b1f559418e24b4633997910160405180910390a15050565b3061171161086d565b6001600160a01b0316146112455760005b84518110156117a257306001600160a01b03168582815181106117475761174761372c565b60200260200101516001600160a01b03161415611792576117928382815181106117735761177361372c565b60200260200101518051906020012060026124d090919063ffffffff16565b61179b816136e5565b9050611722565b505050505050565b6112458585858585612516565b306117c061086d565b6001600160a01b03161461124557600254600f81810b810b600160801b909204810b900b1315611245576000600255611245565b6000610ff18585858561181260408051602081019091526000815290565b61145b565b6000806118238361258a565b9050600481600781111561183957611839613716565b146118445792915050565b6000838152600a60205260409020548061185f575092915050565b600954604051632ab0f52960e01b8152600481018390526001600160a01b0390911690632ab0f5299060240160206040518083038186803b1580156118a357600080fd5b505afa1580156118b7573d6000803e3d6000fd5b505050506040513d601f19601f820116820180604052508101906118db9190612e99565b156118ea575060079392505050565b600954604051632c258a9f60e11b8152600481018390526001600160a01b039091169063584b153e9060240160206040518083038186803b15801561192e57600080fd5b505afa158015611942573d6000803e3d6000fd5b505050506040513d601f19601f820116820180604052508101906119669190612e99565b15611975575060059392505050565b5060029392505050565b60045460408051918252602082018390527fc565b045403dc03c2eea82b81a0465edad9e2e7fc4d97e11421c209da93d7a93910160405180910390a1600455565b60006119ca611146565b6119d9336107c8600143613663565b1015611a415760405162461bcd60e51b815260206004820152603160248201527f476f7665726e6f723a2070726f706f73657220766f7465732062656c6f7720706044820152701c9bdc1bdcd85b081d1a1c995cda1bdb19607a1b60648201526084016109d2565b6000611a56868686868051906020012061124c565b90508451865114611a795760405162461bcd60e51b81526004016109d2906133ad565b8351865114611a9a5760405162461bcd60e51b81526004016109d2906133ad565b6000865111611ae65760405162461bcd60e51b815260206004820152601860248201527711dbdd995c9b9bdc8e88195b5c1d1e481c1c9bdc1bdcd85b60421b60448201526064016109d2565b600081815260016020908152604091829020825191820190925281546001600160401b03169081905215611b665760405162461bcd60e51b815260206004820152602160248201527f476f7665726e6f723a2070726f706f73616c20616c72656164792065786973746044820152607360f81b60648201526084016109d2565b6000611b78611b73610e06565b612696565b611b8143612696565b611b8b91906135f7565b90506000611b9a611b73610897565b611ba490836135f7565b9050611bb08383612702565b611bbd6001840182612702565b7f7d84a6263ae0d98d3329bd7b46bb4e8d6f98cd35a7adb45c274c8b7fd5ebd5e084338b8b8d516001600160401b03811115611bfb57611bfb613742565b604051908082528060200260200182016040528015611c2e57816020015b6060815260200190600190039081611c195790505b508c88888e604051611c489998979695949392919061342f565b60405180910390a15091979650505050505050565b604051630748d63560e31b81526001600160a01b038481166004830152602482018490526000917f000000000000000000000000000000000000000000000000000000000000000090911690633a46b1a89060440160206040518083038186803b158015611cca57600080fd5b505afa158015611cde573d6000803e3d6000fd5b505050506040513d601f19601f820116820180604052508101906110079190612ebb565b600954604080516001600160a01b03928316815291831660208301527f08f74ea46ef7894f65eabfb5e6e695de773a000b47c529ab559178069b226401910160405180910390a1600980546001600160a01b0319166001600160a01b0392909216919091179055565b606061100784848460405180606001604052806029815260200161376e60299139612720565b60008111611df15760405162461bcd60e51b815260206004820152602760248201527f476f7665726e6f7253657474696e67733a20766f74696e6720706572696f6420604482015266746f6f206c6f7760c81b60648201526084016109d2565b60055460408051918252602082018390527f7e3f7f0708a84de9203036abaa450dccc85ad5ff52f78c170f3edb55cf5e8828910160405180910390a1600555565b60065460408051918252602082018390527fccb45da8d5717e6c4544694297c4ba5cf151d455c9bb0ed4fc7a38411bc05461910160405180910390a1600655565b60006064600854604051632394e7a360e21b8152600481018590527f00000000000000000000000000000000000000000000000000000000000000006001600160a01b031690638e539e8c9060240160206040518083038186803b158015611eda57600080fd5b505afa158015611eee573d6000803e3d6000fd5b505050506040513d601f19601f82011682018060405250810190611f129190612ebb565b611f1c9190613644565b6108919190613622565b60006001600160e01b0319821663bf26d89760e01b1480611f5757506001600160e01b031982166379dd796f60e01b145b80611f7257506001600160e01b03198216630271189760e51b145b8061089157506301ffc9a760e01b6001600160e01b0319831614610891565b6000306001600160a01b037f000000000000000000000000000000000000000000000000000000000000000016148015611fea57507f000000000000000000000000000000000000000000000000000000000000000046145b1561201457507f000000000000000000000000000000000000000000000000000000000000000090565b50604080517f00000000000000000000000000000000000000000000000000000000000000006020808301919091527f0000000000000000000000000000000000000000000000000000000000000000828401527f000000000000000000000000000000000000000000000000000000000000000060608301524660808301523060a0808401919091528351808403909101815260c0909201909252805191012090565b6000806fa2a8918ca85bafe22016d0b997e4df60600160ff1b038311156120e55750600090506003612192565b8460ff16601b141580156120fd57508460ff16601c14155b1561210e5750600090506004612192565b6040805160008082526020820180845289905260ff881692820192909252606081018690526080810185905260019060a0016020604051602081039080840390855afa158015612162573d6000803e3d6000fd5b5050604051601f1901519150506001600160a01b03811661218b57600060019250925050612192565b9150600090505b94509492505050565b60008160048111156121af576121af613716565b14156121b85750565b60018160048111156121cc576121cc613716565b14156122155760405162461bcd60e51b815260206004820152601860248201527745434453413a20696e76616c6964207369676e617475726560401b60448201526064016109d2565b600281600481111561222957612229613716565b14156122775760405162461bcd60e51b815260206004820152601f60248201527f45434453413a20696e76616c6964207369676e6174757265206c656e6774680060448201526064016109d2565b600381600481111561228b5761228b613716565b14156122e45760405162461bcd60e51b815260206004820152602260248201527f45434453413a20696e76616c6964207369676e6174757265202773272076616c604482015261756560f01b60648201526084016109d2565b60048160048111156122f8576122f8613716565b1415610a2f5760405162461bcd60e51b815260206004820152602260248201527f45434453413a20696e76616c6964207369676e6174757265202776272076616c604482015261756560f01b60648201526084016109d2565b60008581526007602090815260408083206001600160a01b0388168452600381019092529091205460ff16156123d95760405162461bcd60e51b815260206004820152602760248201527f476f7665726e6f72566f74696e6753696d706c653a20766f746520616c726561604482015266191e4818d85cdd60ca1b60648201526084016109d2565b6001600160a01b03851660009081526003820160205260408120805460ff1916600117905560ff168460ff16141561242a578281600001600082825461241f91906135df565b909155506117a29050565b60ff84166001141561244a578281600101600082825461241f91906135df565b60ff84166002141561246a578281600201600082825461241f91906135df565b60405162461bcd60e51b815260206004820152603560248201527f476f7665726e6f72566f74696e6753696d706c653a20696e76616c69642076616044820152746c756520666f7220656e756d20566f74655479706560581b60648201526084016109d2565b8154600160801b90819004600f90810b80820b820b6000908152600180870160205260409091209490945584549301900b6001600160801b039081169091029116179055565b60095460405163e38335e560e01b81526001600160a01b039091169063e38335e590349061255190889088908890600090899060040161329a565b6000604051808303818588803b15801561256a57600080fd5b505af115801561257e573d6000803e3d6000fd5b50505050505050505050565b6000818152600160205260408120600281015460ff16156125ae5750600792915050565b6002810154610100900460ff16156125c95750600292915050565b60006125d484610dcf565b9050806126235760405162461bcd60e51b815260206004820152601d60248201527f476f7665726e6f723a20756e6b6e6f776e2070726f706f73616c20696400000060448201526064016109d2565b438110612634575060009392505050565b600061263f85611151565b905043811061265357506001949350505050565b61265c85612846565b801561267b575060008581526007602052604090208054600190910154115b1561268b57506004949350505050565b506003949350505050565b60006001600160401b038211156126fe5760405162461bcd60e51b815260206004820152602660248201527f53616665436173743a2076616c756520646f65736e27742066697420696e203660448201526534206269747360d01b60648201526084016109d2565b5090565b815467ffffffffffffffff19166001600160401b0391909116179055565b6060824710156127815760405162461bcd60e51b815260206004820152602660248201527f416464726573733a20696e73756666696369656e742062616c616e636520666f6044820152651c8818d85b1b60d21b60648201526084016109d2565b6001600160a01b0385163b6127d85760405162461bcd60e51b815260206004820152601d60248201527f416464726573733a2063616c6c20746f206e6f6e2d636f6e747261637400000060448201526064016109d2565b600080866001600160a01b031685876040516127f49190613233565b60006040518083038185875af1925050503d8060008114612831576040519150601f19603f3d011682016040523d82523d6000602084013e612836565b606091505b5091509150610e7c82828661287d565b60008181526007602052604081206002810154600182015461286891906135df565b61287461083485610dcf565b11159392505050565b6060831561288c57508161100a565b82511561289c5782518084602001fd5b8160405162461bcd60e51b81526004016109d29190613368565b60006001600160401b038311156128cf576128cf613742565b6128e2601f8401601f191660200161358c565b90508281528383830111156128f657600080fd5b828260208301376000602084830101529392505050565b600082601f83011261291e57600080fd5b8135602061293361292e836135bc565b61358c565b80838252828201915082860187848660051b890101111561295357600080fd5b60005b8581101561297b57813561296981613758565b84529284019290840190600101612956565b5090979650505050505050565b600082601f83011261299957600080fd5b813560206129a961292e836135bc565b80838252828201915082860187848660051b89010111156129c957600080fd5b6000805b86811015612a0b5782356001600160401b038111156129ea578283fd5b6129f88b88838d0101612ac1565b86525093850193918501916001016129cd565b509198975050505050505050565b600082601f830112612a2a57600080fd5b81356020612a3a61292e836135bc565b80838252828201915082860187848660051b8901011115612a5a57600080fd5b60005b8581101561297b57813584529284019290840190600101612a5d565b60008083601f840112612a8b57600080fd5b5081356001600160401b03811115612aa257600080fd5b602083019150836020828501011115612aba57600080fd5b9250929050565b600082601f830112612ad257600080fd5b61100a838335602085016128b6565b803560ff81168114612af257600080fd5b919050565b600080600080600060a08688031215612b0f57600080fd5b8535612b1a81613758565b94506020860135612b2a81613758565b935060408601356001600160401b0380821115612b4657600080fd5b612b5289838a01612a19565b94506060880135915080821115612b6857600080fd5b612b7489838a01612a19565b93506080880135915080821115612b8a57600080fd5b50612b9788828901612ac1565b9150509295509295909350565b60008060008060808587031215612bba57600080fd5b8435612bc581613758565b93506020850135612bd581613758565b92506040850135915060608501356001600160401b03811115612bf757600080fd5b612c0387828801612ac1565b91505092959194509250565b600080600080600060a08688031215612c2757600080fd5b8535612c3281613758565b94506020860135612c4281613758565b9350604086013592506060860135915060808601356001600160401b03811115612c6b57600080fd5b612b9788828901612ac1565b60008060408385031215612c8a57600080fd5b8235612c9581613758565b946020939093013593505050565b60008060008060608587031215612cb957600080fd5b8435612cc481613758565b93506020850135925060408501356001600160401b03811115612ce657600080fd5b612cf287828801612a79565b95989497509550505050565b600080600060608486031215612d1357600080fd5b8335612d1e81613758565b92506020840135915060408401356001600160401b03811115612d4057600080fd5b612d4c86828701612ac1565b9150509250925092565b60008060008060808587031215612d6c57600080fd5b84356001600160401b0380821115612d8357600080fd5b612d8f8883890161290d565b95506020870135915080821115612da557600080fd5b612db188838901612a19565b94506040870135915080821115612dc757600080fd5b50612dd487828801612988565b949793965093946060013593505050565b60008060008060808587031215612dfb57600080fd5b84356001600160401b0380821115612e1257600080fd5b612e1e8883890161290d565b95506020870135915080821115612e3457600080fd5b612e4088838901612a19565b94506040870135915080821115612e5657600080fd5b612e6288838901612988565b93506060870135915080821115612e7857600080fd5b508501601f81018713612e8a57600080fd5b612c03878235602084016128b6565b600060208284031215612eab57600080fd5b8151801515811461100a57600080fd5b600060208284031215612ecd57600080fd5b5051919050565b600060208284031215612ee657600080fd5b81356001600160e01b03198116811461100a57600080fd5b600060208284031215612f1057600080fd5b813561100a81613758565b600060208284031215612f2d57600080fd5b5035919050565b60008060408385031215612f4757600080fd5b823591506020830135612f5981613758565b809150509250929050565b60008060408385031215612f7757600080fd5b82359150612f8760208401612ae1565b90509250929050565b60008060008060608587031215612fa657600080fd5b84359350612fb660208601612ae1565b925060408501356001600160401b03811115612ce657600080fd5b600080600080600060808688031215612fe957600080fd5b85359450612ff960208701612ae1565b935060408601356001600160401b038082111561301557600080fd5b61302189838a01612a79565b90955093506060880135915080821115612b8a57600080fd5b60008060008060008060008060e0898b03121561305657600080fd5b8835975061306660208a01612ae1565b965060408901356001600160401b038082111561308257600080fd5b61308e8c838d01612a79565b909850965060608b01359150808211156130a757600080fd5b506130b48b828c01612ac1565b9450506130c360808a01612ae1565b925060a0890135915060c089013590509295985092959890939650565b600080600080600060a086880312156130f857600080fd5b8535945061310860208701612ae1565b935061311660408701612ae1565b94979396509394606081013594506080013592915050565b600081518084526020808501945080840160005b838110156131675781516001600160a01b031687529582019590820190600101613142565b509495945050505050565b600081518084526020808501808196508360051b8101915082860160005b858110156131ba5782840389526131a88483516131f7565b98850198935090840190600101613190565b5091979650505050505050565b600081518084526020808501945080840160005b83811015613167578151875295820195908201906001016131db565b6000815180845261320f81602086016020860161367a565b601f01601f19169290920160200192915050565b8183823760009101908152919050565b6000825161324581846020870161367a565b9190910192915050565b608081526000613262608083018761312e565b828103602084015261327481876131c7565b905082810360408401526132888186613172565b91505082606083015295945050505050565b60a0815260006132ad60a083018861312e565b82810360208401526132bf81886131c7565b905082810360408401526132d38187613172565b60608401959095525050608001529392505050565b60c0815260006132fb60c083018961312e565b828103602084015261330d81896131c7565b905082810360408401526133218188613172565b60608401969096525050608081019290925260a0909101529392505050565b602081016008831061336257634e487b7160e01b600052602160045260246000fd5b91905290565b60208152600061100a60208301846131f7565b602080825260189082015277476f7665726e6f723a206f6e6c79476f7665726e616e636560401b604082015260600190565b60208082526021908201527f476f7665726e6f723a20696e76616c69642070726f706f73616c206c656e67746040820152600d60fb1b606082015260800190565b60208082526021908201527f476f7665726e6f723a2070726f706f73616c206e6f74207375636365737366756040820152601b60fa1b606082015260800190565b60006101208b8352602060018060a01b038c16818501528160408501526134588285018c61312e565b9150838203606085015261346c828b6131c7565b915083820360808501528189518084528284019150828160051b850101838c0160005b838110156134bd57601f198784030185526134ab8383516131f7565b9486019492509085019060010161348f565b505086810360a08801526134d1818c613172565b9450505050506134ec60c08401876001600160401b03169052565b6001600160401b03851660e084015282810361010084015261350e81856131f7565b9c9b505050505050505050505050565b84815260ff84166020820152826040820152608060608201526000610fd960808301846131f7565b85815260ff8516602082015283604082015260a06060820152600061356e60a08301856131f7565b828103608084015261358081856131f7565b98975050505050505050565b604051601f8201601f191681016001600160401b03811182821017156135b4576135b4613742565b604052919050565b60006001600160401b038211156135d5576135d5613742565b5060051b60200190565b600082198211156135f2576135f2613700565b500190565b60006001600160401b0380831681851680830382111561361957613619613700565b01949350505050565b60008261363f57634e487b7160e01b600052601260045260246000fd5b500490565b600081600019048311821515161561365e5761365e613700565b500290565b60008282101561367557613675613700565b500390565b60005b8381101561369557818101518382015260200161367d565b838111156136a4576000848401525b50505050565b600181811c908216806136be57607f821691505b602082108114156136df57634e487b7160e01b600052602260045260246000fd5b50919050565b60006000198214156136f9576136f9613700565b5060010190565b634e487b7160e01b600052601160045260246000fd5b634e487b7160e01b600052602160045260246000fd5b634e487b7160e01b600052603260045260246000fd5b634e487b7160e01b600052604160045260246000fd5b6001600160a01b0381168114610a2f57600080fdfe416464726573733a206c6f772d6c6576656c2063616c6c20776974682076616c7565206661696c6564a2646970667358221220603081b59992c3e7c61306a1142f3b9010f362d5a6cb457784c7386a52709ef464736f6c63430008070033",
  "linkReferences": {},
  "deployedLinkReferences": {}
}